:020000040800F2
:1000000000500020959F0008A99B0008AF9B0008A6
:10001000B59B0008BB9B0008C19B000800000000C6
:10002000000000000000000000000000C79B000866
:10003000D39B000800000000DF9B0008EB9B00083A
:10004000DD9F0008DD9F0008DD9F0008DD9F0008A0
:10005000DD9F0008DD9F0008DD9F0008DD9F000890
:10006000DD9F0008DD9F0008F79B0008DD9F00086A
:10007000DD9F0008DD9F0008DD9F0008DD9F000870
:10008000DD9F0008DD9F0008DD9F0008DD9F000860
:10009000DD9F0008DD9F0008DD9F0008DD9F000850
:1000A000DD9F0008DD9F0008DD9F0008DD9F000840
:1000B000DD9F0008DD9F0008DD9F0008DD9F000830
:1000C000DD9F0008DD9F0008DD9F0008DD9F000820
:1000D000DD9F0008059C0008DD9F0008DD9F0008EB
:1000E000DD9F0008DD9F0008DD9F00080000000084
:1000F0000000000000000000000000000000000000
:0C01000000000000000000005FF808F1A3
:1001100010B5054C237833B9044B13B10448AFF341
:1001200000800123237010BDF002002000000000B9
:10013000D027010808B5034B1BB103490348AFF3AF
:10014000008008BD00000000F4020020D027010854
:10015000034613F8012B002AFBD1181A0138704707
:1001600081F0004102E000BF83F0004330B54FEA68
:1001700041044FEA430594EA050F08BF90EA020FD5
:100180001FBF54EA000C55EA020C7FEA645C7FEA68
:10019000655C00F0E2804FEA5454D4EB5555B8BF8B
:1001A0006D420CDD2C4480EA020281EA030382EAFC
:1001B000000083EA010180EA020281EA0303362D8E
:1001C00088BF30BD11F0004F4FEA01314FF4801C61
:1001D0004CEA113102D0404261EB410113F0004F73
:1001E0004FEA03334CEA133302D0524263EB43032A
:1001F00094EA050F00F0A780A4F10104D5F1200EC8
:100200000DDB02FA0EFC22FA05F2801841F1000122
:1002100003FA0EF2801843FA05F359410EE0A5F1F6
:1002200020050EF1200E012A03FA0EFC28BF4CF027
:10023000020C43FA05F3C01851EBE37101F00045DD
:1002400007D54FF0000EDCF1000C7EEB00006EEBEA
:100250000101B1F5801F1BD3B1F5001F0CD3490874
:100260005FEA30004FEA3C0C04F101044FEA4452CB
:1002700012F5800F80F09A80BCF1004F08BF5FEA52
:10028000500C50F1000041EB045141EA050130BD32
:100290005FEA4C0C404141EB0101013C28BFB1F544
:1002A000801FE9D291F0000F04BF01460020B1FA8F
:1002B00081F308BF2033A3F10B03B3F120020CDA62
:1002C0000C3208DD02F1140CC2F10C0201FA0CF040
:1002D00021FA02F10CE002F11402D8BFC2F1200CA5
:1002E00001FA02F120FA0CFCDCBF41EA0C0190405B
:1002F000E41AA2BF01EB0451294330BD6FEA0404A4
:100300001F3C1CDA0C340EDC04F11404C4F120028E
:1003100020FA04F001FA02F340EA030021FA04F3A0
:1003200045EA030130BDC4F10C04C4F1200220FAF7
:1003300002F001FA04F340EA0300294630BD21FA35
:1003400004F0294630BD94F0000F83F4801306BFFB
:1003500081F480110134013D4EE77FEA645C18BFEF
:100360007FEA655C29D094EA050F08BF90EA020F86
:1003700005D054EA000C04BF1946104630BD91EA7E
:10038000030F1EBF0021002030BD5FEA545C05D181
:100390004000494128BF41F0004130BD14F58004C0
:1003A0003CBF01F5801130BD01F0004545F0FE4134
:1003B00041F470014FF0000030BD7FEA645C1ABF69
:1003C000194610467FEA655C1CBF0B46024650EAA0
:1003D000013406BF52EA033591EA030F41F40021CC
:1003E00030BD00BF90F0000F04BF0021704730B552
:1003F0004FF4806404F132044FF000054FF0000127
:1004000050E700BF90F0000F04BF0021704730B5E7
:100410004FF4806404F1320410F0004548BF4042BC
:100420004FF000013EE700BF42004FEAE2014FEA11
:1004300031014FEA02701FBF12F07F4393F07F4FEC
:1004400081F06051704732F07F4208BF704793F0EF
:100450007F4F04BF41F40021704730B54FF4607402
:1004600001F0004521F000411CE700BF50EA010205
:1004700008BF704730B54FF000050AE050EA0102AE
:1004800008BF704730B511F0004502D5404261EB1E
:1004900041014FF4806404F132045FEA915C3FF45F
:1004A000D8AE4FF003025FEADC0C18BF03325FEAFC
:1004B000DC0C18BF033202EBDC02C2F1200300FAAD
:1004C00003FC20FA02F001FA03FE40EA0E0021FAD2
:1004D00002F11444BDE600BF70B54FF0FF0C4CF4C0
:1004E000E06C1CEA11541DBF1CEA135594EA0C0F72
:1004F00095EA0C0F00F0DEF82C4481EA030621EAAD
:100500004C5123EA4C5350EA013518BF52EA0335E7
:1005100041F4801143F4801338D0A0FB02CE4FF099
:100520000005E1FB02E506F00042E0FB03E54FF0C9
:100530000006E1FB03569CF0000F18BF4EF0010EC1
:10054000A4F1FF04B6F5007F64F5407404D25FEABD
:100550004E0E6D4146EB060642EAC62141EA555170
:100560004FEAC52040EA5E504FEACE2EB4F1FD0CB2
:1005700088BFBCF5E06F1ED8BEF1004F08BF5FEA30
:10058000500E50F1000041EB045170BD06F00046E2
:1005900046EA010140EA020081EA0301B4EB5C048F
:1005A000C2BFD4EB0C0541EA045170BD41F4801187
:1005B0004FF0000E013C00F3AB8014F1360FDEBFAC
:1005C000002001F0004170BDC4F10004203C35DA88
:1005D0000C341BDC04F11404C4F1200500FA05F30B
:1005E00020FA04F001FA05F240EA020001F00042AC
:1005F00021F0004110EBD37021FA04F642EB060122
:100600005EEA430E08BF20EAD37070BDC4F10C044B
:10061000C4F1200500FA04F320FA05F001FA04F20F
:1006200040EA020001F0004110EBD37041F10001FB
:100630005EEA430E08BF20EAD37070BDC4F1200506
:1006400000FA05F24EEA020E20FA04F301FA05F26E
:1006500043EA020321FA04F001F0004121FA04F216
:1006600020EA020000EBD3705EEA430E08BF20EAE6
:10067000D37070BD94F0000F0FD101F00046400020
:1006800041EB010111F4801F08BF013CF7D041EAA2
:10069000060195F0000F18BF704703F000465200A6
:1006A00043EB030313F4801F08BF013DF7D043EA77
:1006B0000603704794EA0C0F0CEA135518BF95EA2D
:1006C0000C0F0CD050EA410618BF52EA4306D1D1B4
:1006D00081EA030101F000414FF0000070BD50EAD3
:1006E000410606BF1046194652EA430619D094EA5D
:1006F0000C0F02D150EA013613D195EA0C0F05D147
:1007000052EA03361CBF104619460AD181EA03019A
:1007100001F0004141F0FE4141F470014FF0000052
:1007200070BD41F0FE4141F4780170BD70B54FF0ED
:10073000FF0C4CF4E06C1CEA11541DBF1CEA13556D
:1007400094EA0C0F95EA0C0F00F0A7F8A4EB05044F
:1007500081EA030E52EA03354FEA013100F0888046
:100760004FEA03334FF0805545EA131343EA12630F
:100770004FEA022245EA111545EA10654FEA0026C4
:100780000EF000419D4208BF964244F1FD0404F57D
:10079000407402D25B084FEA3202B61A65EB0305D9
:1007A0005B084FEA32024FF480104FF4002CB6EB96
:1007B000020E75EB030E22BFB61A754640EA0C0016
:1007C0005B084FEA3202B6EB020E75EB030E22BF56
:1007D000B61A754640EA5C005B084FEA3202B6EB97
:1007E000020E75EB030E22BFB61A754640EA9C0056
:1007F0005B084FEA3202B6EB020E75EB030E22BF26
:10080000B61A754640EADC0055EA060E18D04FEAE3
:10081000051545EA16754FEA06164FEAC30343EA83
:1008200052734FEAC2025FEA1C1CC0D111F4801F50
:100830000BD141EA00014FF000004FF0004CB6E749
:1008400011F4801F04BF01430020B4F1FD0C88BFE8
:10085000BCF5E06F3FF6AFAEB5EB030C04BFB6EBF3
:10086000020C5FEA500C50F1000041EB045170BDE6
:100870000EF0004E4EEA113114EB5C04C2BFD4EB13
:100880000C0541EA045170BD41F480114FF0000E97
:10089000013C90E645EA060E8DE60CEA135594EA13
:1008A0000C0F08BF95EA0C0F3FF43BAF94EA0C0F16
:1008B0000AD150EA01347FF434AF95EA0C0F7FF48B
:1008C00025AF104619462CE795EA0C0F06D152EADF
:1008D00003353FF4FDAE1046194622E750EA4106C3
:1008E00018BF52EA43067FF4C5AE50EA41047FF4D4
:1008F0000DAF52EA43057FF4EBAE12E74FF0FF3C39
:1009000006E000BF4FF0010C02E000BF4FF0010C09
:100910004DF804CD4FEA410C7FEA6C5C4FEA430C82
:1009200018BF7FEA6C5C1BD001B050EA410C0CBFD1
:1009300052EA430C91EA030F02BF90EA020F002033
:10094000704710F1000F91EA030F58BF994208BF9A
:1009500090422CBFD8176FEAE37040F00100704757
:100960004FEA410C7FEA6C5C02D150EA013C07D1AE
:100970004FEA430C7FEA6C5CD6D152EA033CD3D0F9
:100980005DF8040B704700BF8446104662468C46F3
:100990001946634600E000BF01B5FFF7B7FF002826
:1009A00048BF10F1000F01BD4DF808EDFFF7F4FF4F
:1009B0000CBF012000205DF808FB00BF4DF808EDDA
:1009C000FFF7EAFF34BF012000205DF808FB00BFFD
:1009D0004DF808EDFFF7E0FF94BF012000205DF81F
:1009E00008FB00BF4DF808EDFFF7CEFF94BF0120D4
:1009F00000205DF808FB00BF4DF808EDFFF7C4FFCD
:100A000034BF012000205DF808FB00BF4FEA410C15
:100A10007FEA6C5C02D150EA013C0AD14FEA430CF8
:100A20007FEA6C5C02D152EA033C02D14FF0000035
:100A300070474FF0010070474FEA410212F5001273
:100A400015D211D56FF47873B3EB625212D94FEA15
:100A5000C12343F0004343EA505311F0004F23FAFF
:100A600002F018BF404270474FF00000704750EA54
:100A7000013005D111F0004008BF6FF00040704711
:100A80004FF00000704700BF4A0011D212F500126B
:100A900011D20DD56FF47873B3EB62520ED44FEAD6
:100AA000C12343F0004343EA505323FA02F0704756
:100AB0004FF00000704750EA013002D14FF0FF3094
:100AC00070474FF0000070474FEA4102B2F1E04337
:100AD00024BFB3F5001CDCF1FE5C0DD901F0004C25
:100AE0004FEAC0024CEA5070B2F1004F40EB830075
:100AF00008BF20F00100704711F0804F21D113F1A1
:100B00003872BCBF01F00040704741F480114FEAD9
:100B10005252C2F11802C2F1200C10FA0CF320FA62
:100B200002F018BF40F001004FEAC1234FEAD3237F
:100B300003FA0CFC40EA0C0023FA02F34FEA4303E9
:100B4000CCE77FEA625307D150EA01331EBF4FF072
:100B5000FE4040F44000704701F0004040F0FE408D
:100B600040F40000704700BF80F0004002E000BF8A
:100B700081F0004142001FBF5FEA410392EA030F88
:100B80007FEA226C7FEA236C6AD04FEA1262D2EBD2
:100B90001363C1BFD218414048404140B8BF5B42D7
:100BA000192B88BF704710F0004F40F4000020F070
:100BB0007F4018BF404211F0004F41F4000121F086
:100BC0007F4118BF494292EA030F3FD0A2F10102D0
:100BD00041FA03FC10EB0C00C3F1200301FA03F10E
:100BE00000F0004302D5494260EB4000B0F5000F31
:100BF00013D3B0F1807F06D340084FEA310102F1F0
:100C00000102FE2A51D2B1F1004F40EBC25008BFA1
:100C100020F0010040EA03007047490040EB00006B
:100C2000013A28BFB0F5000FEDD2B0FA80FCACF16C
:100C3000080CB2EB0C0200FA0CF0AABF00EBC25099
:100C400052421843BCBFD0401843704792F0000F87
:100C500081F4000106BF80F400000132013BB5E7DA
:100C60004FEA41037FEA226C18BF7FEA236C21D050
:100C700092EA030F04D092F0000F08BF08467047B5
:100C800090EA010F1CBF0020704712F07F4F04D183
:100C9000400028BF40F00040704712F100723CBF96
:100CA00000F50000704700F0004343F0FE4040F4C0
:100CB000000070477FEA226216BF08467FEA23637E
:100CC0000146420206BF5FEA412390EA010F40F469
:100CD000800070474FF0000304E000BF10F00043B5
:100CE00048BF40425FEA000C08BF704743F096439C
:100CF00001464FF000001CE050EA010208BF7047B7
:100D00004FF000030AE000BF50EA010208BF70473D
:100D100011F0004302D5404261EB41015FEA010C52
:100D200002BF84460146002043F0B64308BFA3F14A
:100D30008053A3F50003BCFA8CF2083AA3EBC2532C
:100D400010DB01FA02FC634400FA02FCC2F120024B
:100D5000BCF1004F20FA02F243EB020008BF20F082
:100D60000100704702F1200201FA02FCC2F12002E8
:100D700050EA4C0021FA02F243EB020008BF20EADD
:100D8000DC7070474FF0FF0C1CEAD0521EBF1CEA0B
:100D9000D15392EA0C0F93EA0C0F6FD01A4480EAF9
:100DA000010C400218BF5FEA41211ED04FF00063E2
:100DB00043EA501043EA5111A0FB01310CF000400E
:100DC000B1F5000F3EBF490041EAD3715B0040EA34
:100DD000010062F17F02FD2A1DD8B3F1004F40EB04
:100DE000C25008BF20F00100704790F0000F0CF0D7
:100DF000004C08BF49024CEA502040EA51207F3A9B
:100E0000C2BFD2F1FF0340EAC250704740F4000075
:100E10004FF00003013A5DDC12F1190FDCBF00F066
:100E200000407047C2F10002410021FA02F1C2F114
:100E3000200200FA02FC5FEA310040F1000053EAB0
:100E40004C0308BF20EADC70704792F0000F00F0FE
:100E5000004C02BF400010F4000F013AF9D040EA04
:100E60000C0093F0000F01F0004C02BF490011F498
:100E7000000F013BF9D041EA0C018FE70CEAD15396
:100E800092EA0C0F18BF93EA0C0F0AD030F0004C16
:100E900018BF31F0004CD8D180EA010000F00040CA
:100EA000704790F0000F17BF90F0004F084691F088
:100EB000000F91F0004F14D092EA0C0F01D14202C2
:100EC0000FD193EA0C0F03D14B0218BF084608D18B
:100ED00080EA010000F0004040F0FE4040F40000D5
:100EE000704740F0FE4040F4400070474FF0FF0C68
:100EF0001CEAD0521EBF1CEAD15392EA0C0F93EAAF
:100F00000C0F69D0A2EB030280EA010C49024FEA00
:100F1000402037D04FF0805343EA111143EA1013B9
:100F20000CF000408B4238BF5B0042F17D024FF471
:100F3000000C8B4224BF5B1A40EA0C00B3EB510F4C
:100F400024BFA3EB510340EA5C00B3EB910F24BF35
:100F5000A3EB910340EA9C00B3EBD10F24BFA3EBBA
:100F6000D10340EADC001B0118BF5FEA1C1CE0D182
:100F7000FD2A3FF650AF8B4240EBC25008BF20F035
:100F8000010070470CF0004C4CEA50207F32C2BF89
:100F9000D2F1FF0340EAC250704740F400004FF026
:100FA0000003013A37E792F0000F00F0004C02BF57
:100FB000400010F4000F013AF9D040EA0C0093F021
:100FC000000F01F0004C02BF490011F4000F013B7B
:100FD000F9D041EA0C0195E70CEAD15392EA0C0FE3
:100FE00008D142027FF47DAF93EA0C0F7FF470AF1B
:100FF000084676E793EA0C0F04D14B023FF44CAF5E
:1010000008466EE730F0004C18BF31F0004CCAD1F2
:1010100030F000427FF45CAF31F000437FF43CAF2E
:101020005FE700BF4FF0FF3C06E000BF4FF0010C50
:1010300002E000BF4FF0010C4DF804CD4FEA400232
:101040004FEA41037FEA226C18BF7FEA236C11D07C
:1010500001B052EA530C18BF90EA010F58BFB2EB2F
:10106000030088BFC81738BF6FEAE17018BF40F0AF
:10107000010070477FEA226C02D15FEA402C05D163
:101080007FEA236CE4D15FEA412CE1D05DF8040BE8
:10109000704700BF844608466146FFE70FB5FFF77B
:1010A000C9FF002848BF10F1000F0FBD4DF808ED33
:1010B000FFF7F4FF0CBF012000205DF808FB00BF24
:1010C0004DF808EDFFF7EAFF34BF012000205DF87E
:1010D00008FB00BF4DF808EDFFF7E0FF94BF0120CB
:1010E00000205DF808FB00BF4DF808EDFFF7D2FFC8
:1010F00094BF012000205DF808FB00BF4DF808ED0B
:10110000FFF7C8FF34BF012000205DF808FB00BFD7
:101110004FEA40024FEA41037FEA226C02D15FEAC4
:10112000402C08D17FEA236C02D15FEA412C02D126
:101130004FF0000070474FF0010070474FEA400247
:10114000B2F1FE4F0FD34FF09E03B3EB12620DD9F5
:101150004FEA002343F0004310F0004F23FA02F05F
:1011600018BF404270474FF00000704712F1610F06
:1011700001D1420205D110F0004008BF6FF00040DD
:1011800070474FF00000704742000ED2B2F1FE4FA0
:101190000BD34FF09E03B3EB126209D44FEA002346
:1011A00043F0004323FA02F070474FF0000070470D
:1011B00012F1610F01D1420202D14FF0FF307047AE
:1011C0004FF00000704700BF38B505460C460022BE
:1011D000002328462146FFF7F1FB28B9284621467F
:1011E000BDE8384000F00AB8284604F1004100F09C
:1011F00005F8404261EB410138BD00BFD0B5002287
:101200000B4B06460F46FFF767F9FFF73DFC044618
:10121000FFF7E8F80022074BFFF75EF902460B469E
:1012200030463946FEF7A0FFFFF72EFC2146D0BD21
:101230000000F03D0000F04180B48BB000AF78605A
:1012400039607B683A681A607B684FF000025A6028
:101250007B68154A9A607B684FF07E52DA607B6843
:101260004FF000021A617B684FF000025A617B6800
:101270004FF000029A617B684FF00002DA617B68F0
:101280004FF000021A627B684FF000025A627B68DE
:10129000064A9A627B68002283F82C2000BF2C3714
:1012A000BD4680BC704700BFFFFF7F7F000020412C
:1012B00080B584B000AFF860B9607A60B968B8688A
:1012C000FFF760FD03461A46FB685A607968786844
:1012D000FFF758FD03461A46FB689A6000BF1037B7
:1012E000BD4680BD90B5ADF5577D00AF07F556748E
:1012F000A4F55374206007F55670A0F5567080E889
:101300000E004FF00003C7F8B4324FF00003C7F8E7
:10131000B8324FF00003C7F8BC32D7F868334FF04B
:1013200000011846FFF7C2FE0346002B14D0D7F881
:101330006C334FF000011846FFF7B8FE0346002B50
:101340000AD0D7F870334FF000011846FFF7AEFE11
:101350000346002B40F0CE8507F55673A3F5537373
:101360001B681A6907F55673A3F553731B689B69CD
:1013700019461046FFF706FD03461C4607F556734F
:10138000A3F553731B68DA6807F55673A3F5537317
:101390001B685B6919461046FFF7F4FC03461946C3
:1013A0002046FFF7E5FB03461A4607F55673A3F5FB
:1013B00008731A6007F55673A3F553731B68DA6850
:1013C00007F55673A3F553731B681B69194610463E
:1013D000FFF7D8FC03461C4607F55673A3F5537375
:1013E0001B685A6907F55673A3F553731B689B690D
:1013F00019461046FFF7C6FC034619462046FFF77C
:10140000B9FB03461A4607F55673A3F508735A60ED
:1014100007F55673A3F553731B68DA6807F556731F
:10142000A3F553731B68DB6819461046FFF7AAFC47
:1014300003464FF07C511846FFF79AFB03461C46C3
:1014400007F55673A3F553731B689A6907F556732E
:10145000A3F553731B689B6919461046FFF792FC6E
:10146000034619462046FFF785FB03461A4607F553
:101470005673A3F508739A6007F55673A3F53A738C
:101480001C4607F55A7393E8070084E8070007F540
:101490005673A3F53D7107F55673A3F53A720B46E3
:1014A00007CA83E8070007F55673A3F53D731A686A
:1014B00007F55673A3F53D731B6819461046FFF7F1
:1014C00061FC03461C4607F55673A3F53D735A6845
:1014D00007F55673A3F53D735B6819461046FFF791
:1014E00051FC034619462046FFF744FB03461C46C1
:1014F00007F55673A3F53D739A6807F55673A3F580
:101500003D739B6819461046FFF73CFC034619469D
:101510002046FFF72FFB0346C7F84C334FF07C51B2
:10152000D7F84C03FFF72EFC0346C7F8483307F5FE
:101530005673A3F53E73D7F84C231A6007F1600386
:101540001A6807F55673A3F53F731A6007F55673CB
:10155000A3F53F731B685A10C14B9B1A07F55672CF
:10156000A2F53F72136007F15C031A6807F5567322
:10157000A3F53E731A6007F55673A3F53E731B6817
:10158000D7F848131846FFF7FDFB03461A4607F540
:101590005673A3F53E731B6819461046FFF7F2FB1E
:1015A000034619464FF07F50FFF7E2FA03461A460A
:1015B00007F55673A3F53E731B6819461046FFF7EF
:1015C000E1FB03461A4607F55673A3F53E731A600E
:1015D00007F55673A3F53E731B68C7F8443307F548
:1015E0005673A3F5427107F55673A3F53A720B468D
:1015F00007CA83E80700D7F84433C7F8403307F534
:101600005673A3F542731B68D7F840131846FFF7CB
:10161000B9FB03461A4607F55673A3F545731A60DE
:1016200007F55673A3F542735B68D7F84013184665
:10163000FFF7A8FB03461A4607F55673A3F5457353
:101640005A6007F55673A3F542739B68D7F84013A9
:101650001846FFF797FB03461A4607F55673A3F59E
:1016600045739A6007F55673A3F5457207F5307315
:1016700007CA83E8070000BF07F55673A3F54B734D
:101680001C4607F5307393E8070084E8070007F568
:101690005673A3F5487107F55673A3F508720B4608
:1016A00007CA83E8070007F55673A3F54B735A681A
:1016B00007F55673A3F548739B6819461046FFF764
:1016C00061FB03461C4607F55673A3F54B739A68F6
:1016D00007F55673A3F548735B6819461046FFF784
:1016E00051FB034619462046FFF742FA03461A46C5
:1016F00007F55673A3F54E731A6007F55673A3F5F5
:101700004B739A6807F55673A3F548731B6819461F
:101710001046FFF737FB03461C4607F55673A3F543
:101720004B731A6807F55673A3F548739B681946FF
:101730001046FFF727FB034619462046FFF718FA25
:1017400003461A4607F55673A3F54E735A6007F51C
:101750005673A3F54B731A6807F55673A3F54873D0
:101760005B6819461046FFF70DFB03461C4607F55C
:101770005673A3F54B735A6807F55673A3F5487370
:101780001B6819461046FFF7FDFA03461946204626
:10179000FFF7EEF903461A4607F55673A3F54E73A5
:1017A0009A6007F55673A3F54E7207F52D7307CAB5
:1017B00083E8070007F55673A3F551731C4607F538
:1017C0005D7393E8070084E8070007F55673A3F5F7
:1017D00051731A6807F55673A3F551731B681946C0
:1017E0001046FFF7CFFA03461C4607F55673A3F5DC
:1017F00051735A6807F55673A3F551735B68194620
:101800001046FFF7BFFA034619462046FFF7B2F924
:1018100003461C4607F55673A3F551739A6807F5FE
:101820005673A3F551739B6819461046FFF7AAFA41
:10183000034619462046FFF79DF90346C7F8503383
:1018400007F55673A3F553731B685B681946D7F801
:101850005003FFF735FC0346002B40F04C8301E0BA
:10186000DF59375F07F55673A3F553731B689B6801
:101870001946D7F85003FFF741FC0346002B40F010
:101880003A8307F55673A3F553731B681A6907F576
:101890005673A3F553731B685B6919461046FFF72F
:1018A00071FA03461C4607F55673A3F553731B687C
:1018B000DA6807F55673A3F553731B689B691946DD
:1018C0001046FFF75FFA034619462046FFF752F924
:1018D00003461A4607F55673A3F50B731A6007F50E
:1018E0005673A3F553731B68DA6807F55673A3F5AF
:1018F00053731B68DB6819461046FFF743FA03462B
:101900004FF07C511846FFF733F903461C4607F5A4
:101910005673A3F553731B685A6907F55673A3F5FD
:1019200053731B685B6919461046FFF72BFA034691
:1019300019462046FFF71EF903461A4607F5567367
:10194000A3F50B735A6007F55673A3F553731B6821
:101950005A6907F55673A3F553731B689B691946BB
:101960001046FFF70FFA03461C4607F55673A3F51A
:1019700053731B68DA6807F55673A3F553731B6836
:101980001B6919461046FFF7FDF903461946204624
:10199000FFF7EEF803461A4607F55673A3F50B73E7
:1019A0009A6007F55673A3F511731C4607F55A7331
:1019B00093E8070084E8070007F55673A3F50E7354
:1019C0001C4607F55D7393E8070084E8070007F5F8
:1019D0005673A3F511735A6807F55673A3F50E7382
:1019E0009B6819461046FFF7CDF903461C4607F5DC
:1019F0005673A3F511739A6807F55673A3F50E7322
:101A00005B6819461046FFF7BDF9034619462046A4
:101A1000FFF7AEF803461A4607F55673A3F514739D
:101A20001A6007F55673A3F511739A6807F5567394
:101A3000A3F50E731B6819461046FFF7A3F903467A
:101A40001C4607F55673A3F511731A6807F556730C
:101A5000A3F50E739B6819461046FFF793F90346EA
:101A600019462046FFF784F803461A4607F55673D1
:101A7000A3F514735A6007F55673A3F511731A682A
:101A800007F55673A3F50E735B6819461046FFF70A
:101A900079F903461C4607F55673A3F511735A6886
:101AA00007F55673A3F50E731B6819461046FFF72A
:101AB00069F9034619462046FFF75AF803461A46C5
:101AC00007F55673A3F514739A6007F55673A3F5DB
:101AD000147207F5337307CA83E8070007F55673D6
:101AE000A3F517731C4607F5337393E8070084E8E2
:101AF000070007F55673A3F51A7107F55673A3F59A
:101B000017720B4607CA83E8070007F55673A3F55B
:101B10001A731A6807F55673A3F51A731B681946EA
:101B20001046FFF72FF903461C4607F55673A3F539
:101B30001A735A6807F55673A3F51A735B6819464A
:101B40001046FFF71FF9034619462046FFF712F823
:101B500003461C4607F55673A3F51A739A6807F5F2
:101B60005673A3F51A739B6819461046FFF70AF9D6
:101B7000034619462046FEF7FDFF0346C7F83C33EF
:101B80004FF07C51D7F83C03FFF7FCF80346C7F849
:101B9000383307F55673A3F51B73D7F83C231A6047
:101BA00007F1EC031A6807F55673A3F51C731A6066
:101BB00007F55673A3F51C731B685A10C64B9B1A86
:101BC00007F55672A2F51C72136007F1E8031A6854
:101BD00007F55673A3F51B731A6007F55673A3F543
:101BE0001B731B68D7F838131846FFF7CBF803466A
:101BF0001A4607F55673A3F51B731B681946104662
:101C0000FFF7C0F8034619464FF07F50FEF7B0FFCC
:101C100003461A4607F55673A3F51B731B6819464E
:101C20001046FFF7AFF803461A4607F55673A3F5BB
:101C30001B731A6007F55673A3F51B731B68C7F86F
:101C4000343307F55673A3F51F7107F55673A3F5E3
:101C500017720B4607CA83E80700D7F83433C7F872
:101C6000303307F55673A3F51F731B68D7F830138D
:101C70001846FFF787F803461A4607F55673A3F58B
:101C800022731A6007F55673A3F51F735B68D7F8C4
:101C900030131846FFF776F803461A4607F55673D1
:101CA000A3F522735A6007F55673A3F51F739B685B
:101CB000D7F830131846FFF765F803461A4607F5BC
:101CC0005673A3F522739A6007F55673A3F5227233
:101CD00007F5367307CA83E8070000BF07F5567398
:101CE000A3F528731C4607F5367393E8070084E8CC
:101CF000070007F55673A3F5257107F55673A3F58D
:101D00000B720B4607CA83E8070007F55673A3F565
:101D100028735A6807F55673A3F525739B6819460F
:101D20001046FFF72FF803461C4607F55673A3F538
:101D300028739A6807F55673A3F525735B681946EF
:101D40001046FFF71FF8034619462046FEF710FF1E
:101D500003461A4607F55673A3F52B731A6007F569
:101D60005673A3F528739A6807F55673A3F5257380
:101D70001B6819461046FFF705F803461C4607F591
:101D80005673A3F528731A6807F55673A3F52573E0
:101D90009B6819461046FEF7F5FF03461946204694
:101DA000FEF7E6FE03461A4607F55673A3F52B73B6
:101DB0005A6007F55673A3F528731A6807F556732A
:101DC000A3F525735B6819461046FEF7DBFF034653
:101DD0001C4607F55673A3F528735A6807F5567322
:101DE000A3F525731B6819461046FEF7CBFF034683
:101DF00019462046FEF7BCFE03461A4607F5567301
:101E0000A3F52B739A6007F55673A3F52B7207F5AC
:101E1000397307CA83E8070007F55673A3F53173D2
:101E20001C4607F52D7393E8070084E8070007F5C3
:101E30005673A3F52E731C4607F5397393E8070014
:101E400084E8070007F55673A3F531731A6807F5A0
:101E50005673A3F52E731B6819461046FEF78AFECB
:101E600003461A4607F55673A3F537731A6007F54C
:101E70005673A3F531735A6807F55673A3F52E739D
:101E80005B6819461046FEF775FE03461A4607F5CD
:101E90005673A3F537735A6007F55673A3F531737C
:101EA0009A6807F55673A3F52E739B68194610467A
:101EB000FEF760FE03461A4607F55673A3F537731F
:101EC0009A6007F55673A3F5347107F55673A3F5B9
:101ED00037720B4607CA01E0DF59375F83E8070016
:101EE00007F55673A3F5347207F52D7307CA83E817
:101EF000070000E000BF07F55673A3F553731B6896
:101F00001B684FF000011846FFF7D0F80346002B7E
:101F100007D007F55673A3F553731B684FF0000203
:101F20009A6207F55673A3F553731B681B68C7F8CD
:101F3000543307F55673A3F553731B689A6A07F574
:101F40005673A3F553731B681B6819461046FFF7B9
:101F5000D5F80346002B2FD007F55673A3F553731E
:101F60001B689C6A07F55673A3F553731B681B68BF
:101F70001946CC48FEF7FCFD0346D7F880131846F7
:101F8000FEF700FF0346C8491846FEF7AFFF0346B9
:101F900019462046FEF7ECFD03461A4607F5567330
:101FA000A3F553731B689A6207F55673A3F5537331
:101FB0001B689B6AC7F85433BC4B4FF07C511846E2
:101FC000FEF7E0FE03461C4607F55673A3F556726E
:101FD00007F5217307CA83E80700C7F81843D7F845
:101FE0008432D7F818131846FEF7CCFE0346C7F81C
:101FF0007832D7F88832D7F818131846FEF7C2FEA1
:102000000346C7F87C32D7F88C32D7F81813184635
:10201000FEF7B8FE0346C7F8803207F5277307F5C9
:102020001E7207CA83E8070007F51B7307F52D72B8
:1020300007CA83E80700D7F85433C7F81C33D7F82A
:102040006C32D7F81C131846FEF79CFE0346C7F8FF
:102050006032D7F87032D7F81C131846FEF792FE9C
:102060000346C7F86432D7F87432D7F81C13184601
:10207000FEF788FE0346C7F8683207F53C7307F59C
:10208000187207CA83E8070007F55673A3F588732B
:102090001C4607F5277393E8070084E8070007F557
:1020A0005673A3F582731C4607F53C7393E807004B
:1020B00084E8070007F55673A3F588731A6807F5D7
:1020C0005673A3F582731B6819461046FEF752FD3E
:1020D00003461A4607F55673A3F594731A6007F57D
:1020E0005673A3F588735A6807F55673A3F5827380
:1020F0005B6819461046FEF73DFD03461A4607F594
:102100005673A3F594735A6007F55673A3F5887355
:102110009A6807F55673A3F582739B6819461046B3
:10212000FEF728FD03461A4607F55673A3F5947388
:102130009A6007F55673A3F58E7107F55673A3F5EC
:1021400094720B4607CA83E8070007F55673A3F598
:102150008E7207F5277307CA83E8070007F55673E1
:10216000A3F59A731C4607F5277393E8070084E8E4
:102170000700D7F88033C7F8203307F55673A3F567
:102180009A731B68D7F820131846FEF7FBFD034629
:102190001A4607F55673A3F5A0731A6007F5567330
:1021A000A3F59A735B68D7F820131846FEF7EAFD8B
:1021B00003461A4607F55673A3F5A0735A6007F550
:1021C0005673A3F59A739B68D7F820131846FEF749
:1021D000D9FD03461A4607F55673A3F5A0739A6016
:1021E00007F55673A3F5A07207F53F7307CA83E896
:1021F000070007F55673A3F5AE7207F55673A3F5FE
:1022000053731B6814460C330FCB84E80F0007F59B
:102210005673A3F5A6731C4607F53F7393E80700B2
:1022200084E8070007F55673A3F5AE735B6883F087
:10223000004207F55673A3F5A6731B6819461046AE
:10224000FEF7A0FD03461C4607F55673A3F5AE73D3
:102250009A6807F55673A3F5A6735B68194610468E
:10226000FEF790FD034619462046FEF781FC034623
:102270001C4607F55673A3F5AE73DA6807F5567377
:10228000A3F5A6739B6819461046FEF77BFD03462F
:1022900019462046FEF76CFC03461A4607F55673AE
:1022A00006E000BF000020410000404035FA8E3CAF
:1022B000A3F5B6731A6007F55673A3F5AE731A68E3
:1022C00007F55673A3F5A6731B6819461046FEF76B
:1022D00059FD03461C4607F55673A3F5AE739A687D
:1022E00007F55673A3F5A6739B6819461046FEF7CB
:1022F00049FD034619462046FEF73CFC03461C46B2
:1023000007F55673A3F5AE73DA6807F55673A3F5B0
:10231000A6735B6819461046FEF734FD034619465E
:102320002046FEF725FC03461A4607F55673A3F52B
:10233000B6735A6007F55673A3F5AE731A6807F5BE
:102340005673A3F5A6735B6819461046FEF71AFD8F
:1023500003461C4607F55673A3F5AE735A6807F596
:102360005673A3F5A6739B6819461046FEF70AFD3F
:10237000034619462046FEF7FBFB03461C4607F5BD
:102380005673A3F5AE73DA6807F55673A3F5A67313
:102390001B6819461046FEF7F5FC03461946204611
:1023A000FEF7E8FB03461A4607F55673A3F5B67326
:1023B0009A6007F55673A3F5AE731A6807F556735E
:1023C000A3F5A6739B6819461046FEF7DBFC03468F
:1023D0001C4607F55673A3F5AE735A6807F5567396
:1023E000A3F5A6735B6819461046FEF7CBFC0346BF
:1023F00019462046FEF7BEFB03461C4607F55673FA
:10240000A3F5AE739A6807F55673A3F5A6731B6818
:1024100019461046FEF7B6FC034619462046FEF75D
:10242000A7FB03461A4607F55673A3F5B673DA60A1
:1024300007F55673A3F5B67307F542740FCB84E81E
:102440000F0007F55673A3F5C67207F55673A3F58B
:1024500053731B6814460C330FCB84E80F0007F549
:102460005673A3F5BE731C4607F542730FCB84E881
:102470000F0007F55673A3F5C6731A6807F5567370
:10248000A3F5BE731B6819461046FEF773FB03469F
:102490001A4607F55673A3F5D6731A6007F55673F7
:1024A000A3F5C6735A6807F55673A3F5BE735B6848
:1024B00019461046FEF75EFB03461A4607F55673AB
:1024C000A3F5D6735A6007F55673A3F5C6739A68D9
:1024D00007F55673A3F5BE739B6819461046FEF7C1
:1024E00049FB03461A4607F55673A3F5D6739A605F
:1024F00007F55673A3F5C673DA6807F55673A3F5A7
:10250000BE73DB6819461046FEF734FB03461A46D5
:1025100007F55673A3F5D673DA6007F55673A3F57E
:10252000CE7207F55673A3F5D67314460FCB84E825
:102530000F0007F55673A3F553731B6807F5567222
:10254000A2F5CE7203F10C0413460FCB84E80F0002
:1025500007F55673A3F5DE7207F55673A3F55373AB
:102560001B6814460C330FCB84E80F0007F5567335
:10257000A3F5DE731A6807F55673A3F5DE731B68BF
:1025800019461046FEF7FEFB03461C4607F5567338
:10259000A3F5DE735A6807F55673A3F5DE735B681F
:1025A00019461046FEF7EEFB034619462046FEF795
:1025B000E1FA03461C4607F55673A3F5DE739A68E5
:1025C00007F55673A3F5DE739B6819461046FEF7B0
:1025D000D9FB034619462046FEF7CCFA03461C46B3
:1025E00007F55673A3F5DE73DA6807F55673A3F59E
:1025F000DE73DB6819461046FEF7C4FB0346194636
:102600002046FEF7B7FA0346C7F82C334FF07C514B
:10261000D7F82C03FEF7B6FB0346C7F8283307F5B7
:102620005673A3F5F073D7F82C231A6007F5BC7323
:102630001A6807F55673A3F5F2731A6007F5567317
:10264000A3F5F2731B685A10BF4B9B1A07F556721D
:10265000A2F5F272136007F5BA731A6807F556739C
:10266000A3F5F0731A6007F55673A3F5F0731B68B2
:10267000D7F828131846FEF785FB03461A4607F5D8
:102680005673A3F5F0731B6819461046FEF77AFBE4
:10269000034619464FF07F50FEF76AFA03461A4682
:1026A00007F55673A3F5F0731B6819461046FEF73D
:1026B00069FB03461A4607F55673A3F5F0731A60D3
:1026C00007F55673A3F5F0731B68C7F8243307F5B5
:1026D0005673A3F5DE731B68D7F824131846FEF76C
:1026E00051FB03461A4607F55673A3F5EE731A60BD
:1026F00007F55673A3F5DE735B68D7F82413184605
:10270000FEF740FB03461A4607F55673A3F5EE7332
:102710005A6007F55673A3F5DE739B68D7F8241348
:102720001846FEF72FFB03461A4607F55673A3F526
:10273000EE739A6007F55673A3F5DE73DB68D7F87E
:1027400024131846FEF71EFB03461A4607F5567378
:10275000A3F5EE73DA6007F55673A3F5E67207F595
:102760005673A3F5EE7314460FCB84E80F0007F5FC
:102770005673A3F553731B6807F55672A2F5E672FC
:1027800003F10C0413460FCB84E80F0007F55673D2
:10279000A3F553731B681A6907F55673A3F55373B2
:1027A0001B689B6919461046FEF7ECFA03461C4667
:1027B00007F55673A3F553731B68DA6807F556736C
:1027C000A3F553731B685B6919461046FEF7DAFAE6
:1027D000034619462046FEF7CBF90346194618462C
:1027E000FEF7C8F90346C7F8903207F55673A3F50C
:1027F00053731B68DA6807F55673A3F553731B68A8
:102800001B6919461046FEF7BDFA03461C4607F53C
:102810005673A3F553731B685A6907F55673A3F5EE
:1028200053731B689B6919461046FEF7ABFA0346C3
:1028300019462046FEF79EF9034619461846FEF74C
:1028400099F90346C7F8943207F55673A3F5537305
:102850001B68DA6807F55673A3F553731B68DB68CA
:1028600019461046FEF78EFA03464FF07C51184683
:10287000FEF77EF903461C4607F55673A3F553731E
:102880001B689A6907F55673A3F553731B689B6918
:1028900019461046FEF776FA034619462046FEF71B
:1028A00069F9034619461846FEF764F90346C7F866
:1028B000983207F55673A3F5FE731C4607F55A7355
:1028C00093E8070084E8070007F55673A3F5F8734B
:1028D0001C4607F5247393E8070084E8070007F512
:1028E0005673A3F5FE731A6807F55673A3F5F873CC
:1028F0001B6819461046FEF73BF903461A4607F5D2
:102900005673A3F505731A6007F55673A3F5FE73A6
:102910005A6807F55673A3F5F8735B6819461046B5
:10292000FEF726F903461A4607F55673A3F5057315
:102930005A6007F55673A3F5FE739A6807F5567348
:10294000A3F5F87302E000BFDF59375F9B681946B3
:102950001046FEF70DF903461A4607F55673A3F520
:1029600005739A6007F55673A3F5027107F5567360
:10297000A3F505720B4607CA83E8070007F55673EF
:10298000A3F553731B6807F55672A2F502721C3348
:1029900007CA83E8070000BF07F55777BD4690BD1B
:1029A00090B591B008AFF860384680E80E004FF05F
:1029B00000037B614FF00003BB614FF00003FB613C
:1029C000FB6B069303AC07F1140393E8070084E85C
:1029D00007006B4607F1300207CA83E807003B4651
:1029E0000ECBF868FEF77EFCF86800F041F803466D
:1029F000002B04D0FB68012283F82C200DE0FB683B
:102A000093F82C30002B08D04FF00001F86800F04C
:102A100047F8FB68002283F82C2000BF2437BD460E
:102A200090BD90B48AB000AF786039603B6807F120
:102A300018040C330FCB84E80F00BB69BB60FB6943
:102A400083F00043FB603B6A83F000433B617B6A99
:102A500083F000437B617B681C4607F108030FCBC2
:102A600084E80F0000BF78682837BD4690BC7047E7
:102A700090B583B000AF78607B689A6A7B681B680A
:102A800001210C4619461046FEF738FB0346002B81
:102A900001D100231C46E3B218460C37BD4690BD59
:102AA000B0B5A6B000AF786039607B6807F1680404
:102AB0000C330FCB84E80F00BB6EBA6E114618467C
:102AC000FEF760F903461C46FB6EFA6E1146184687
:102AD000FEF758F9034619462046FEF74BF8034621
:102AE0001C463B6F3A6F11461846FEF74BF90346FA
:102AF00019462046FEF73EF803461C467B6F7A6F68
:102B000011461846FEF73EF9034619462046FEF7E1
:102B100031F8034618460DF003FF034619464FF0FF
:102B20007E50FEF7E3F90346C7F88830BB6ED7F84E
:102B300088101846FEF726F90346BB64FB6ED7F8EB
:102B400088101846FEF71EF90346FB643B6FD7F862
:102B500088101846FEF716F903463B657B6FD7F8D9
:102B600088101846FEF70EF903467B6507F15804F6
:102B700007F148030FCB84E80F007B6803F10C04D6
:102B800007F158030FCB84E80F007B681A697B6854
:102B90005B6919461046FEF7F5F803461C467B684C
:102BA000DA687B689B6919461046FEF7EBF8034626
:102BB00019462046FDF7DEFF03461C467B68DA68AF
:102BC0007B68DB6819461046FEF7DCF803464FF0D9
:102BD0007C511846FDF7CCFF03461D467B681A69F9
:102BE0007B681B6919461046FEF7CCF80346194668
:102BF0002846FDF7BFFF0346194620460DF08EFE1E
:102C0000C7F894003B68C7F88C308349D7F88C002C
:102C1000FEF7B8F803461946D7F89400FDF7A8FF69
:102C200003464FF07C511846FEF7ACF80346C7F850
:102C30009030D7F890000DF077FD0346BB674FF05A
:102C40000003FB674FF00003C7F88030D7F890000F
:102C50000DF0A2FD034683F00043C7F8843007F16E
:102C6000280407F178030FCB84E80F007B6807F195
:102C700038040C330FCB84E80F00BB6ABA6B1146E3
:102C80001846FEF77FF803461C46FB6AFA6B1146AE
:102C90001846FEF777F8034619462046FDF768FF09
:102CA00003461C463B6B3A6C11461846FEF76AF821
:102CB000034619462046FDF75BFF03461C467B6B27
:102CC0007A6C11461846FEF75DF803461946204611
:102CD000FDF74EFF0346BB60BB6AFA6B1146184610
:102CE000FEF750F803461C46FB6ABA6B11461846BD
:102CF000FEF748F8034619462046FDF73BFF03461A
:102D00001C463B6B7A6C11461846FEF73BF80346AF
:102D100019462046FDF72EFF03461C467B6B3A6C96
:102D200011461846FEF72EF8034619462046FDF7D1
:102D30001FFF0346FB60BB6A3A6C11461846FEF75C
:102D400021F803461C46FB6A7A6C11461846FEF7CA
:102D500019F8034619462046FDF70AFF03461C46AC
:102D60003B6BBA6B11461846FEF70CF80346194642
:102D70002046FDF7FFFE03461C467B6BFA6B1146AF
:102D80001846FDF7FFFF034619462046FDF7F2FE01
:102D900003463B61BB6A7A6C11461846FDF7F2FFA9
:102DA00003461C46FB6A3A6C11461846FDF7EAFFDB
:102DB000034619462046FDF7DDFE03461C463B6BE5
:102DC000FA6B11461846FDF7DDFF0346194620460B
:102DD000FDF7CEFE03461C467B6BBA6B11461846C8
:102DE000FDF7D0FF034619462046FDF7C3FE034614
:102DF0007B6107F1180407F108030FCB84E80F008B
:102E00007B6803F10C0407F118030FCB84E80F0073
:102E100000BF9837BD46B0BD35FA8E3C00000000BB
:102E200080B588B000AFF860B9607A60FB68BA68B6
:102E30001A60FB687A685A60FB685B681846FDF7A1
:102E4000F3FA11A3D3E90023FDF746FB02460B4634
:102E500010461946FDF738FE0246FB689A60FB688B
:102E60004FF00002DA60FB684FF000021A61FB6865
:102E70004FF000025A61FB684FF000029A6100BFF8
:102E80002037BD4680BD00BF43FF0E8CBF15C03F3D
:102E900082B090B5A3B000AF7860396007F19801B7
:102EA00081E80C0007F1180307F1980207CA83E8CC
:102EB00007003A6807F12403103207CA83E80700C5
:102EC000BB697A6A11461846FDF752FE0346FB605D
:102ED000FB69BA6A11461846FDF74AFE03463B6194
:102EE0003B6AFA6A11461846FDF742FE03467B61CB
:102EF00007F1980407F10C0393E8070084E8070042
:102F0000D7F8983023F000423B681B6819461046FA
:102F1000FEF7F4F80346002B19D1D7F89C3023F0C4
:102F200000423B681B6819461046FEF7E7F8034667
:102F3000002B0CD1D7F8A03023F000423B681B686F
:102F400019461046FEF7DAF80346002B0CD03B6812
:102F50004FF00002DA607B681C4607F1980393E8A3
:102F6000070084E8070083E03B68DB6844491846B3
:102F7000FEF7A6F80346002B14D03B68DA683B68DE
:102F80005B6819461046FDF7F5FD03461A463B6897
:102F9000DA607B681C4607F1980393E8070084E831
:102FA000070065E03B689C6807F16C0307F1980235
:102FB00007CA83E80700C7F88440FB6ED7F884107F
:102FC0001846FDF7DFFE03463B663B6FD7F88410DB
:102FD0001846FDF7D7FE03467B667B6FD7F8841053
:102FE0001846FDF7CFFE0346BB6607F1780307F1ED
:102FF000600207CA83E807003A6807F14803103205
:1030000007CA83E8070007F1540307F1780207CAEB
:1030100083E80700BB6C7A6D11461846FDF7AAFDE0
:1030200003463B63FB6CBA6D11461846FDF7A2FDE3
:1030300003467B633B6DFA6D11461846FDF79AFD1A
:103040000346BB6307F13C0307F1300207CA83E87C
:1030500007003B68103307F13C0207CA83E807000A
:103060007B681C4607F1980393E8070084E8070093
:1030700078688C37BD46BDE8904002B0704700BF0D
:103080000000A04080B485B000AF786039600023B4
:10309000FB603B68002B06D17B6871333B6002E02C
:1030A0003B6801333B603B68002B03D03B681B78D7
:1030B000202BF5D03B681B782D2B04D13B680133C6
:1030C0003B60012300E00023FB720DE0FA68134629
:1030D0009B0013445B001A463B681B78303B13444B
:1030E000FB603B6801333B603B68002B07D03B68CB
:1030F0001B782F2B03D93B681B78392BE6D9FB7A39
:10310000002B02D0FB685B4200E0FB6818461437D6
:10311000BD4680BC704780B584B000AF7860396030
:103120003B68002B06D17B6871333B6002E03B6853
:1031300001333B603B68002B03D03B681B78202B9E
:10314000F5D0002138680BF087FAC7E90201D7E90A
:103150000223104619461037BD4680BD80B588B0A1
:1031600000AF786000217868FFF7D5FFC7E9060156
:10317000D7E90601FDF760FC03461B4A82FB0312F8
:103180005211DB17D31A1846FDF73CF902460B46DD
:10319000C7E904234FF00002144BD7E90401FDF7FF
:1031A0009BF902460B46D7E90601FCF7DDFF024614
:1031B0000B46C7E902234FF000020D4BD7E902018D
:1031C000FDF7B4FA02460B46D7E90401FCF7CEFF3F
:1031D00002460B46C7E90623D7E9062310461946DF
:1031E0002037BD4680BD00BF1F85EB510000594010
:1031F00000004E402DE9B04382B000AF786079689E
:1032000091F87F10002969D17B6871330622B64995
:1032100018460AF001FC0346002B09D07B68713385
:103220000622B24918460AF0F7FB0346002B04D1E8
:103230007B68012283F870204EE07B6871330622A0
:10324000AB4918460AF0E8FB0346002B09D07B681F
:1032500071330622A74918460AF0DEFB0346002B0D
:1032600004D17B68022283F8702035E07B687133DB
:103270000622A14918460AF0CFFB0346002B09D0CD
:103280007B68713306229D4918460AF0C5FB034648
:10329000002B04D17B68032283F870201CE07B683C
:1032A00071330622964918460AF0B6FB0346002BF6
:1032B00009D07B6871330622924918460AF0ACFBAC
:1032C0000346002B04D17B68042283F8702003E0BE
:1032D0007B68002283F8702001231FE2796891F84F
:1032E0007010002900F01982796891F87010012996
:1032F00040F0C1807B6893F87F30013B0A2B00F2DD
:10330000FF8101A252F823F035330008AF330008E3
:10331000C1330008EB330008FD33000827340008F0
:103320003B340008013700084F340008013700081B
:10333000633400087B6893F87130303BDBB21A4687
:10334000920013445B00DAB27B6893F87230134446
:10335000DBB2303BDAB27B6883F8AA207B6893F853
:103360007330303BDBB21A46920013445B00DAB292
:103370007B6893F874301344DBB2303BDAB27B687D
:1033800083F8AB207B6893F87530303BDBB21A468C
:10339000920013445B00DAB27B6893F876301344F2
:1033A000DBB2303BDAB27B6883F8AC20B5E17868F9
:1033B000FFF7D4FE02460B467968C1E92223ACE14F
:1033C0007B6893F87130532B05D07B6893F871308C
:1033D000732B40F097817B68D3E92223904683F0DA
:1033E00000497B68C3E922898CE17868FFF7B6FE63
:1033F00002460B467968C1E924238EE17B6893F885
:103400007130572B05D07B6893F87130772B40F0E3
:103410007B817B68D3E92423144683F000457B68D5
:10342000C3E9244570E100217868FFF72BFE0346CD
:10343000DAB27B6883F8A9206FE100217868FFF792
:1034400021FE0346DAB27B6883F8A82065E10021FB
:103450007868FFF760FE02460B467968C1E92623CB
:103460005BE100217868FFF756FE02460B4679685B
:10347000C1E9282351E1796891F8701002297DD1C2
:103480007B6893F87F30023B0F2B5BD801A252F888
:1034900023F000BFD5340008453500084535000845
:1034A0004535000845350008453500084535000814
:1034B0004535000845350008453500084535000804
:1034C0004535000845350008093500081D35000858
:1034D0003135000800217868FFF7D4FD0346DAB2E1
:1034E0007B6883F8A02018E1E8270108F02701088D
:1034F000F8270108002801080828010810280108F9
:10350000182801082028010800217868FFF703FE29
:1035100002460B467968C1E92623FEE0002178685F
:10352000FFF7F9FD02460B467968C1E92223F4E072
:1035300000217868FFF7EFFD02460B467968C1E984
:103540002423EAE07B6893F87F30022B40F2DE8090
:103550007B6893F87F300E2B00F2D88000217868CA
:10356000FFF790FD02467B6893F87F30033BD1B2B2
:103570007A6813440A4683F8A120C7E0796891F875
:10358000701003291BD17B6893F87F30022B02D087
:10359000032B0AD0C1E000217868FFF773FD0346D2
:1035A000DAB27B6883F88920B7E000217868FFF7FA
:1035B00069FD0346DAB27B6883F88820ADE079685C
:1035C00091F87010042940F0A380796891F87F1079
:1035D0000239092900F29E8001A050F821F000BFB5
:1035E0000936000815370008153700081537000898
:1035F0001537000823360008373600084B36000818
:10360000C5360008D93600087B6893F87130412B25
:103610000CBF01230023DBB21A467B6883F88820A5
:103620007BE000217868FFF776FD02460B4679685B
:10363000C1E9242371E000217868FFF76CFD0246A0
:103640000B467968C1E9262367E07B6893F87130FF
:10365000303BDBB21A46920013445B00DAB27B685F
:1036600093F872301344DBB2303BDAB27B6883F8F4
:1036700089207B6893F87330303BDBB21A469200A6
:1036800013445B00DAB27B6893F874301344DBB206
:10369000303BDAB27B6883F88A207B6893F8753018
:1036A000303BDBB21A46920013445B00DAB27B680F
:1036B00093F876301344DBB2303BDAB27B6883F8A0
:1036C0008B202AE000217868FFF725FD02460B4693
:1036D0007968C1E9282320E0796891F871105729A9
:1036E00004D0796891F87110772915D17968D1E9FA
:1036F0002801024681F000437968C1E928230BE0E4
:1037000000BF0AE000BF08E000BF06E000BF04E021
:1037100000BF02E000BF00E000BF012318460837E9
:10372000BD46BDE8B08300BF80B485B000AF78600F
:103730007B6893F871302F2B0DD97B6893F871302B
:10374000392B08D87B6893F87130303BDBB21B0112
:10375000DBB25AB226E07B6893F87130602B0DD94A
:103760007B6893F871307A2B08D87B6893F87130B6
:10377000573BDBB21B01DBB25AB213E07B6893F814
:103780007130402B0DD97B6893F871305A2B08D8D3
:103790007B6893F87130373BDBB21B01DBB25AB266
:1037A00000E000227B6893F872302F2B0CD97B68E5
:1037B00093F87230392B07D87B6893F872305BB27C
:1037C00003F00F035BB228E07B6893F87230602B44
:1037D0000ED97B6893F872307A2B09D87B6893F8FE
:1037E0007230573BDBB25BB203F00F035BB214E005
:1037F0007B6893F87230402B0ED97B6893F8723057
:103800005A2B09D87B6893F87230373BDBB25BB236
:1038100003F00F035BB200E0002313435BB2FB73C2
:103820007B6893F88130FA7B9A420CBF0123002316
:10383000DBB218461437BD4680BC704780B582B0F5
:1038400000AF78607B6893F87030012B36D17B68CD
:10385000D3E922237968C1E900237B68D3E92423D3
:103860007968C1E902237B68D3E926237968C1E935
:1038700004237B68D3E928237968C1E906237B68A0
:1038800093F8A8207B6883F820207B6893F8A92010
:103890007B6883F821207B6893F8AA207B6883F8F3
:1038A00022207B6893F8AB207B6883F823207B6819
:1038B00093F8AC207B6883F8242061E07B6893F860
:1038C0007030022B21D17B68D3E922237968C1E9CA
:1038D0000A237B68D3E926237968C1E90E237B6834
:1038E000D3E924237968C1E90C237B6893F8A020ED
:1038F0007B6883F840207B6803F141007B68A1333B
:103900000C2219460AF072F83AE07B6893F870309E
:10391000032B06D17B6893F888207B6883F84D20C1
:103920002EE07B6893F87030042B29D17B68D3E9B3
:1039300026237968C1E916237B6893F888207B6881
:1039400083F84E207B68D3E924237968C1E91423E6
:103950007B68D3E928237968C1E918237B6893F849
:1039600089207B6883F868207B6893F88A207B68CD
:1039700083F869207B6893F88B207B6883F86A2042
:10398000012318460837BD4680BD80B582B000AF20
:103990007860B022002178680AF036F801231846D2
:1039A0000837BD4680BD80B586B000AFF860B9600D
:1039B0007A60BB687B61ADE07B691B78242B28D1E2
:1039C000FB6870334022002118460AF01DF8FB689E
:1039D00093F87E300B2B00F29780FB6893F87E30D3
:1039E00019467B691A78FB680B4483F87120FB68E1
:1039F00093F87E300133DAB2FB6883F87E20FB68EF
:103A000093F87E301A46FB681344002283F8712035
:103A10007AE07B691B782C2B1DD1F868FFF7EAFB55
:103A2000FB6893F881207B691B785340DAB2FB680E
:103A300083F88120FB68002283F87E20FB68002247
:103A400083F87120FB6893F87F300133DAB2FB68AA
:103A500083F87F2058E07B691B782A2B17D1F86800
:103A6000FFF7C8FBFB68012283F88020FB68002277
:103A700083F87E20FB68002283F87120FB6893F8AE
:103A80007F300133DAB2FB6883F87F203CE07B694A
:103A90001B780D2B09D1F868FFF746FE0346002B73
:103AA00032D0F868FFF7CAFE2EE0FB6893F880304A
:103AB000002B09D1FB6893F881207B691B78534068
:103AC000DAB2FB6883F88120FB6893F87E300B2B19
:103AD0001AD8FB6893F87E3019467B691A78FB6820
:103AE0000B4483F87120FB6893F87E300133DAB21F
:103AF000FB6883F87E20FB6893F87E301A46FB68EB
:103B00001344002283F871207B6901337B617B6859
:103B1000013B7B607B68002B7FF44EAF012318468E
:103B20001837BD4680BD90B587B000AFB9607B60E7
:103B30000346FB731346BB810023FB757B68002B98
:103B400003D07B68DB69002B02D1FF23FB7517E0F4
:103B5000BB89002B02D1F423FB7511E07B689B78B5
:103B6000012B03D1FB7B63F07F03FB737B68DC6974
:103B70007B685878BB89F97BBA68A0470346FB7518
:103B800097F9173018461C37BD4690BD90B587B0E1
:103B900000AFB9607B600346FB731346BB81002313
:103BA000FB750023BB757B68002B03D07B681B6A09
:103BB000002B02D1FF23FB7545E0BB89002B02D10E
:103BC000F423FB753FE07B689B78012B03D1FB7BE3
:103BD00003F07F03FB737B681B7A112B03D07B6898
:103BE0001B7C152B24D17B681C6A7B685878BB89A9
:103BF000F97BBA68A0470346FB757B685B6A0120C6
:103C000098471AE07B681C6A7B685878BB7DBA6865
:103C10001A44F97B0123A0470346FB75FB7B013364
:103C2000FB737B685B6A01209847BB7D0133BB75E2
:103C3000BB7D9BB2BA899A42E4D897F91730002B22
:103C400001D0FE23FB7597F9173018461C37BD4687
:103C500090BD80B584B000AF78600323BB737868F3
:103C600000F034FD0346FB7397F90F30002B0CD1A5
:103C70007B689B78012B08D107F10D017B6801223D
:103C80007F20FFF750FF0346FB7397F90F30002B9F
:103C900027D17B6800221A7007E079687B680122CF
:103CA0000020FFF740FF0346FB73BB7B5A1EBA732D
:103CB000002B03D07B681B78D12BEED197F90F3006
:103CC000002B0CD17B681B78D12B08D17B68FF229D
:103CD000DA70786800F00BF80346FB7301E0FD230F
:103CE000FB7397F90F3018461037BD4680BD80B57D
:103CF00084B000AF7860B623BB737B68002B03D021
:103D00007B685B6A002B02D1FF23FB7324E007F181
:103D10000E017B6801227E20FFF738FF0346FB730C
:103D20007B685B6A0120984797F90F30002B0CD114
:103D30007B689B78012B08D107F10E017B6801227B
:103D40007F20FFF7F0FE0346FB7397F90F30002B3F
:103D500002D1786800F0D9FC97F90F301846103777
:103D6000BD4680BD80B584B000AF78600023FB7392
:103D70007B68002B03D07B685B6A002B02D1FF239A
:103D8000FB731FE0786800F0E9FC0346FB7397F9CA
:103D90000F30002B16D1786800F021FE0346FB732C
:103DA00097F90F30002B0DD1786800F011F8034619
:103DB000FB7397F90F30002B04D1786800F0DAFD1F
:103DC0000346FB7397F90F3018461037BD4680BD88
:103DD00080B584B000AF78600023FB737B68002B54
:103DE00003D07B685B6A002B02D1FF23FB730DE0DD
:103DF000786800F0FAFE0346FB7397F90F30002B4A
:103E000004D1786800F088FF0346FB7397F90F3000
:103E100018461037BD4680BD80B586B000AFB9608A
:103E20007A603B600346FB730023FB750023BB7580
:103E3000FB7B03F007037B757B7D9B10DBB203F0FC
:103E400001033B757B7D03F003037B753B7D012BF9
:103E500001D10323BB753B68002B3CD07B7D032B3A
:103E600024D0032B34DC012B02D0022B0FD02FE007
:103E7000BB68002B02D1FF23FB752EE0BB7D3A68A7
:103E8000B968184600F08CFF0346FB7525E07B6897
:103E9000002B02D1FF23FB751FE0BB7D3A687968D8
:103EA000184601F048F80346FB7516E07B68002BC6
:103EB00002D0BB68002B02D1FF23FB750DE0B87D5B
:103EC0003B687A68B96801F080F90346FB7504E045
:103ED000FB23FB7501E0FF23FB7597F917301846AC
:103EE0001837BD4680BD000080B584B000AF786053
:103EF00039600023FB737B685B780D2B79D801A2B6
:103F000052F823F03D3F00084B3F0008753F000882
:103F1000673F0008673F0008833F0008913F0008A3
:103F2000AD3F00089F3F0008593F0008BB3F000815
:103F3000C93F0008D73F0008E53F000839687868A6
:103F400000F05AF90346FB7354E03968786800F0D2
:103F5000EDF90346FB734DE03968786800F014FA18
:103F60000346FB7346E03968786800F073F903464E
:103F7000FB733FE03968786800F034FA0346FB735E
:103F800038E03968786800F06EFA0346FB7331E078
:103F90003968786800F0A8FA0346FB732AE03968AC
:103FA000786800F0E2FA0346FB7323E0396878682A
:103FB00000F026FB0346FB731CE03968786800F0CC
:103FC00082F90346FB7315E03968786802F080FDDA
:103FD0000346FB730EE03968786802F0E0FD0346A3
:103FE000FB7307E03968786800F055FB0346FB7304
:103FF00000E000BF97F90F3018461037BD4680BD6E
:1040000080B586B000AFF860B9607A60786800F07B
:104010005DFB0346FB7597F91730002B02D0FF2399
:10402000FB7568E07968F86802F040FE0346FB75AE
:1040300097F91730002B5ED107F116017B6801223A
:104040006920FFF770FD0346FB75BB7D5BB223F073
:1040500040035AB2FB681B789B015BB203F040033C
:104060005BB213435BB2DBB2BB75BB7D5BB223F0CB
:1040700030035AB2FB685B781B015BB203F030037C
:104080005BB213435BB2DBB2BB75BB7D5BB223F0AB
:104090000C035AB2FB689B789B005BB203F00C03E5
:1040A0005BB213435BB2DBB2BB75BB7D5BB223F08B
:1040B00003035AB2FB68DB785BB203F003035BB225
:1040C00013435BB2DBB2BB7597F91730002B12D1EB
:1040D00007F116017B6801226920FFF757FD0346AF
:1040E000FB7597F91730002B05D17968B86802F095
:1040F00027FE0346FB7597F9173018461837BD465B
:1041000080BD80B588B000AF78603960386800F055
:10411000DDFA0346FB7797F91F30002B02D0FF230F
:10412000FB7763E007F10C013B6807227120FFF782
:10413000FAFC0346FB773B7B5AB27B681A707B7BA9
:104140005AB27B685A70BB7B5AB27B689A70FB7B11
:10415000BB77BB7C03F003037B777B7F9B037B8375
:10416000BB7F9B013B837A8B3B8B1343FB82B7F96D
:104170001630002B00DA3F339B111AB27B689A800D
:104180003B7CBB77BB7C9B10DBB203F003037B77EC
:104190007B7F9B037B83BB7F9B013B837A8B3B8B2A
:1041A0001343FB82B7F91630002B00DA3F339B1123
:1041B0001AB27B68DA807B7CBB77BB7C1B11DBB2DD
:1041C00003F003037B777B7F9B037B83BB7F9B0198
:1041D0003B837A8B3B8B1343FB82B7F91630002B62
:1041E00000DA3F339B111AB27B681A8197F91F30AE
:1041F00018462037BD4680BD80B584B000AF7860DA
:104200003960386800F062FA0346FB7397F90F30A3
:10421000002B02D17B68002B02D1FF23FB7313E03C
:104220007B680433BB603968B86801F00DF9034658
:10423000FB7397F90F30002B06D13A68B96878689C
:1042400001F03FFB0346FB7397F90F301846103718
:10425000BD4680BD80B584B000AF786039603868F5
:1042600000F034FA0346FB7397F90F30002B02D1AC
:104270007B68002B02D1FF23FB731EE07B680433B5
:10428000BB603A68B968786801F083FE0346FB7347
:1042900097F90F30002B10D13968786800F0FBF9DE
:1042A0000346FB7397F90F30002B06D13A68B968C3
:1042B000786801F0C1FE0346FB7397F90F3018468A
:1042C0001037BD4680BD80B584B000AF78603960DE
:1042D000386800F0FBF90346FB7397F90F30002BA9
:1042E00002D17B68002B02D1FF23FB7318E03868F2
:1042F00001F020FB0346FB7397F90F30002B0FD121
:104300003968786800F0C7F90346FB7397F90F30F6
:10431000002B05D13968786801F0D4F90346FB73A6
:1043200097F90F3018461037BD4680BD80B584B070
:1043300000AF78603960386800F0C8F90346FB7355
:1043400097F90F30002B02D17B68002B02D1FF239D
:10435000FB7313E07B680433BB603968B86801F015
:104360003FFC0346FB7397F90F30002B06D13A68E8
:10437000B968786801F075FC0346FB7397F90F3054
:1043800018461037BD4680BD80B584B000AF786058
:104390003960386800F09AF90346FB7397F90F30DB
:1043A000002B02D17B68002B02D1FF23FB7313E0AB
:1043B0007B680433BB603968B86801F0E8FA0346EB
:1043C000FB7397F90F30002B06D13A68B96878680B
:1043D00001F032FB0346FB7397F90F301846103794
:1043E000BD4680BD80B584B000AF78603960386864
:1043F00000F06CF90346FB7397F90F30002B02D1E4
:104400007B68002B02D1FF23FB7326E07B6804331B
:10441000BB603968B86801F0F9FC0346FB7397F993
:104420000F30002B19D13968786800F034F9034651
:10443000FB7397F90F30002B0FD13968786801F0C2
:10444000A7F80346FB7397F90F30002B05D13968A5
:10445000B86801F014FD0346FB7397F90F30184656
:104460001037BD4680BD80B584B000AF786039603C
:10447000386800F02BF90346FB7397F90F30002BD7
:1044800002D17B68002B02D1FF23FB7326E07B68FF
:104490000433BB603968B86801F0D2FE0346FB7391
:1044A00097F90F30002B19D13968786800F0F3F8CC
:1044B0000346FB7397F90F30002B0FD139687868EA
:1044C00001F066F80346FB7397F90F30002B05D116
:1044D0003968B86801F0EDFE0346FB7397F90F30B9
:1044E00018461037BD4680BD80B584B000AF7860F7
:1044F0003960386800F0EAF80346FB7397F90F302B
:10450000002B02D17B68002B02D1FF23FB7326E036
:104510007B680433BB603968B86801F063FF034609
:10452000FB7397F90F30002B19D13968786800F0C8
:10453000B2F80346FB7397F90F30002B0FD139689F
:10454000786801F025F80346FB7397F90F30002BCC
:1045500005D13968B86801F07BFF0346FB7397F912
:104560000F3018461037BD4680BD80B584B000AF0F
:1045700078603960386800F0A9F80346FB7397F952
:104580000F30002B02D17B68002B02D1FF23FB737D
:1045900030E07B680433BB603968B86801F0BEFF67
:1045A0000346FB7397F90F30002B23D139687868E5
:1045B00000F071F80346FB7397F90F30002B19D107
:1045C0003968786800F0E4FF0346FB7397F90F3011
:1045D000002B0FD13968B86801F0D9FF0346FB738F
:1045E00097F90F30002B05D13968B86802F006F84A
:1045F0000346FB7397F90F3018461037BD4680BD50
:1046000080B584B000AF78603960386800F05EF83B
:104610000346FB7397F90F30002B02D17B68002B08
:1046200002D1FF23FB7330E07B680433BB60396841
:10463000B86802F03FF80346FB7397F90F30002B80
:1046400023D13968786800F026F80346FB7397F9A0
:104650000F30002B19D13968786800F099FF0346B4
:10466000FB7397F90F30002B0FD13968B86802F04F
:1046700081F80346FB7397F90F30002B05D1396899
:10468000B86802F0ADF80346FB7397F90F3018468F
:104690001037BD4680BD80B584B000AF786039600A
:1046A0003968786802F0E2F80346FB7397F90F3037
:1046B000002B05D13968786802F0A2F90346FB7334
:1046C00097F90F3018461037BD4680BD80B485B0CD
:1046D00000AF78607B68002B0BD07B68DB69002B18
:1046E00007D07B681B6A002B03D07B685B6A002BBA
:1046F00002D1FF23FB7301E00023FB7397F90F3016
:1047000018461437BD4680BC704780B483B000AFF4
:1047100078607B680222DA717B6808225A717B68B4
:1047200010221A717B6803229A717B680222DA7365
:104730007B6808225A737B6814221A737B680022F4
:104740009A737B687A6852689A607B687A68D268E4
:104750001A6100BF0C37BD4680BC704780B584B07D
:1047600000AF78600023BB8107F10C03796818461D
:1047700000F033F80346FB7397F90F30002B26D176
:1047800007F10C017B6801224020FFF7FFF9034687
:10479000FB7397F90F30002B19D17B685A797B682E
:1047A0005A727B68DA797B68DA7207F10C03591C5C
:1047B0007B6801224120FFF7E9F90346FB7397F973
:1047C0000F30002B03D17B689A797B689A7297F936
:1047D0000F3018461037BD4680BD80B584B000AF9D
:1047E000786039603B68022279684020FFF79BF9C6
:1047F0000346FB7397F90F30002B1BD1396878689B
:1048000000F01EF80346FB7397F90F30002B11D10F
:104810003968786800F047F80346FB7397F90F3062
:10482000002B07D17B6801333968184600F06FF818
:104830000346FB7397F90F3018461037BD4680BD0D
:1048400080B485B000AF786039600023FB7300232B
:10485000BB7300237B733B685B790C2B1AD83B68D6
:104860005A793B685B7A9A4216D03B685B797B73D6
:104870007B681B7823F00F03BB7397F90D3003F0AF
:104880000F035AB297F90E3013435BB2DAB27B686A
:104890001A7001E0FC23FB7397F90F3018461437A8
:1048A000BD4680BC704780B485B000AF7860396089
:1048B0000023FB730023BB7300237B733B68DB790E
:1048C000072B1BD83B68DA793B68DB7A9A4217D012
:1048D0003B68DB797B737B681B7823F07003BB73C9
:1048E0007B7B1B015BB203F070035AB297F90E3069
:1048F00013435BB2DAB27B681A7001E0FC23FB73EE
:1049000097F90F3018461437BD4680BC704780B405
:1049100085B000AF786039600023FB730023BB7360
:1049200000237B733B689B790C2B1AD83B689A79E0
:104930003B689B7A9A4216D03B689B797B737B6875
:104940001B7823F00F03BB7397F90D3003F00F03AF
:104950005AB297F90E3013435BB2DAB27B681A7021
:1049600001E0FC23FB7397F90F3018461437BD465E
:1049700080BC704780B584B000AF78600023BB7303
:1049800007F10E017B6801220220FFF7CCF80346F5
:10499000FB73BB7B5B08DBB2BB73BB7B03F00F031A
:1049A000DBB2BB73BB7B012B02D1FA23FB7310E09C
:1049B000BB7B022B02D1F923FB730AE0BB7B032BE9
:1049C00002D1F823FB7304E0BB7B072B01D1F72353
:1049D000FB7397F90F3018461037BD4680BD80B580
:1049E00084B000AF78600023BB8107F10C037968C5
:1049F000184600F033F80346FB7397F90F30002B8D
:104A000026D107F10C017B6801224220FFF7BEF896
:104A10000346FB7397F90F30002B19D17B685A7B43
:104A20007B685A747B68DA7B7B68DA7407F10C0365
:104A3000591C7B6801224320FFF7A8F80346FB734B
:104A400097F90F30002B03D17B689A7B7B689A74AF
:104A500097F90F3018461037BD4680BD80B584B039
:104A600000AF786039603B68022279684220FFF726
:104A70005AF80346FB7397F90F30002B1BD13968A6
:104A8000786800F01EF80346FB7397F90F30002B8F
:104A900011D13968786800F047F80346FB7397F93D
:104AA0000F30002B07D17B6801333968184600F0BE
:104AB00069F80346FB7397F90F3018461037BD4667
:104AC00080BD80B485B000AF786039600023FB738F
:104AD0000023BB7300237B733B685B7B0D2B1AD8D1
:104AE0003B685A7B3B685B7C9A4216D03B685B7B99
:104AF0007B737B681B7823F00F03BB7397F90D3032
:104B000003F00F035AB297F90E3013435BB2DAB2D7
:104B10007B681A7001E0FC23FB7397F90F3018468D
:104B20001437BD4680BC704780B485B000AF786054
:104B300039600023FB730023BB7300237B733B6846
:104B4000DB7B022B15D83B68DB7B7B737B681B7898
:104B500023F03003BB737B7B1B015BB203F030039C
:104B60005AB297F90E3013435BB2DAB27B681A700F
:104B700001E0FC23FB7397F90F3018461437BD464C
:104B800080BC704780B485B000AF78603960002386
:104B9000FB730023BB7300237B733B689B7B042B5D
:104BA0001AD83B689A7B3B689B7C9A4216D03B683C
:104BB0009B7B7B737B681B7823F00703BB7397F9A0
:104BC0000D3003F007035AB297F90E3013435BB26E
:104BD000DAB27B681A7001E0FC23FB7397F90F309F
:104BE00018461437BD4680BC704780B584B000AF0E
:104BF00078600023FB730023BB737B681B790F2B4A
:104C00002BD97B681B79122B27D87B681A797B6894
:104C10001B7A9A4224D007F10E037968184600F0F7
:104C200026F80346FB7397F90F30002B18D17B68E9
:104C3000191D7B6801227E20FEF7A8FF0346FB7347
:104C40007B681B7A102B03D17B685B6A0520984731
:104C50007B681A797B681A7202E0F323FB7300E029
:104C600000BF97F90F3018461037BD4680BD80B59C
:104C700084B000AF786039600023BB730023BB8130
:104C80003B68012279684020FEF74DFF0346FB7325
:104C900097F90F30002B39D13B681B79122B20D1AB
:104CA0007B681B7803F07F03BB73BB7B63F07F03E0
:104CB000DAB27B681A703B68012279684020FEF7FF
:104CC00065FF0346FB7397F90F30002B1ED107F1E8
:104CD0000C013B6802225820FEF758FF0346FB7385
:104CE00014E07B681B785BB2002B0FDA7B681B78C3
:104CF00003F07F03BB737B68BA7B1A703B680122A9
:104D000079684020FEF742FF0346FB7397F90F30A6
:104D100018461037BD4680BD80B584B000AF7860BE
:104D20000023FB737B681B7B142B07D07B681B7BEA
:104D3000152B03D07B681B7B172B29D17B681A7B33
:104D40007B681B7C9A4225D07B6803F10C017B6851
:104D500001227E20FEF71AFF0346FB737B681B7C53
:104D6000142B04D17B685B6A502098470BE07B686A
:104D70001B7C172B07D17B681B7B152B03D17B6812
:104D80005B6A0A2098477B681A7B7B681A7401E08B
:104D9000F323FB7397F90F3018461037BD4680BDDB
:104DA00080B58CB000AF0346B9607A60FB73002316
:104DB00087F82E3000237B6107F1180300221A6068
:104DC0001A71002387F82D3000237B8500237B6236
:104DD000FB7B9BB206339AB207F114017B68122069
:104DE000FEF7A1FE034687F82F3097F92F30002BEE
:104DF00040F0988097F82E305A1C87F82E203033D8
:104E00003B4413F81C3C87F8233097F82E305A1C8B
:104E100087F82E2030333B4413F81C3C87F82230AF
:104E200097F822301B021AB297F823301BB21343B3
:104E30003B84BB683A8C1A8097F82E305A1C87F84E
:104E40002E2030333B4413F81C3C87F8233097F86E
:104E50002E305A1C87F82E2030333B4413F81C3C6C
:104E600087F8223097F822301B021AB297F82330C5
:104E70001BB213433B84BB683A8C5A8097F82E30A0
:104E80005A1C87F82E2030333B4413F81C3C87F81B
:104E9000233097F82E305A1C87F82E2030333B44AD
:104EA00013F81C3C87F8223097F822301B021AB204
:104EB00097F823301BB213433B84BB683A8C9A802B
:104EC000FB7B032B2AD197F82E305A1C87F82E2013
:104ED00030333B4413F81C3C87F82D3097F82E30C4
:104EE0005A1C87F82E2030333B4413F81C3C9BB2ED
:104EF0001B027B8597F82E305A1C87F82E20303302
:104F00003B4413F81C3C1B047B627A8D7B6A1A437A
:104F100097F82D301A43BB689A6006E0BB68002200
:104F20009A6002E0FE2387F82F3097F92F30184659
:104F30003037BD4680BD80B58CB000AF0346B96048
:104F40007A60FB73002387F82E3000233B6107F162
:104F5000140300221A605A60C3F80720002387F860
:104F60002D3000237B8500237B62FB7B002B7BD1D4
:104F700007F110017B6806220C20FEF7D4FD0346E2
:104F800087F82F3097F92F30002B69D197F82E3002
:104F90005A1C87F82E2030333B4413F8203C87F806
:104FA000233097F82E305A1C87F82E2030333B449C
:104FB00013F8203C87F8223097F822301B021AB2EF
:104FC00097F823301BB213433B84BB683A8C1A809A
:104FD00097F82E305A1C87F82E2030333B4413F8B4
:104FE000203C87F8233097F82E305A1C87F82E2063
:104FF00030333B4413F8203C87F8223097F82230B6
:105000001B021AB297F823301BB213433B84BB68D0
:105010003A8C5A8097F82E305A1C87F82E2030335D
:105020003B4413F8203C87F8233097F82E305A1C65
:1050300087F82E2030333B4413F8203C87F8223089
:1050400097F822301B021AB297F823301BB2134391
:105050003B84BB683A8C9A80BB6800229A60AEE0C1
:10506000FE2387F82F30AAE0FB7B9BB20C339AB269
:1050700007F110017B680C20FEF755FD034687F809
:105080002F3097F92F30002B40F0968097F82E3074
:105090005A1C87F82E2030333B4413F8203C87F805
:1050A000233097F82E305A1C87F82E2030333B449B
:1050B00013F8203C87F8223097F822301B021AB2EE
:1050C00097F823301BB213433B84BB683A8C1A8099
:1050D00097F82E305A1C87F82E2030333B4413F8B3
:1050E000203C87F8233097F82E305A1C87F82E2062
:1050F00030333B4413F8203C87F8223097F82230B5
:105100001B021AB297F823301BB213433B84BB68CF
:105110003A8C5A8097F82E305A1C87F82E2030335C
:105120003B4413F8203C87F8233097F82E305A1C64
:1051300087F82E2030333B4413F8203C87F8223088
:1051400097F822301B021AB297F823301BB2134390
:105150003B84BB683A8C9A8097F82E30063387F8E8
:105160002E3097F82E305A1C87F82E2030333B44CF
:1051700013F8203C87F82D3097F82E305A1C87F80A
:105180002E2030333B4413F8203C9BB21B027B851E
:1051900097F82E305A1C87F82E2030333B4413F8F2
:1051A000203C1B047B627A8D7B6A1A4397F82D3072
:1051B0001A43BB689A6002E0FE2387F82F3097F904
:1051C0002F3018463037BD4680BD80B58CB000AF5B
:1051D000B9607A603B600346FB73002387F82E308A
:1051E00000233B6107F1140300221A605A60C3F8E0
:1051F0000720002387F82D3000237B8500237B6266
:10520000FB7B9BB20C339AB207F110013B680C2078
:10521000FEF789FC034687F82F3097F92F30002BD3
:1052200040F0098197F82E305A1C87F82E20303331
:105230003B4413F8203C87F8233097F82E305A1C53
:1052400087F82E2030333B4413F8203C87F8223077
:1052500097F822301B021AB297F823301BB213437F
:105260003B847B683A8C1A8097F82E305A1C87F85A
:105270002E2030333B4413F8203C87F8233097F836
:105280002E305A1C87F82E2030333B4413F8203C34
:1052900087F8223097F822301B021AB297F8233091
:1052A0001BB213433B847B683A8C5A8097F82E30AC
:1052B0005A1C87F82E2030333B4413F8203C87F8E3
:1052C000233097F82E305A1C87F82E2030333B4479
:1052D00013F8203C87F8223097F822301B021AB2CC
:1052E00097F823301BB213433B847B683A8C9A8037
:1052F00097F82E305A1C87F82E2030333B4413F891
:10530000203C87F8233097F82E305A1C87F82E203F
:1053100030333B4413F8203C87F8223097F8223092
:105320001B021AB297F823301BB213433B84BB68AD
:105330003A8C1A8097F82E305A1C87F82E2030337A
:105340003B4413F8203C87F8233097F82E305A1C42
:1053500087F82E2030333B4413F8203C87F8223066
:1053600097F822301B021AB297F823301BB213436E
:105370003B84BB683A8C5A8097F82E305A1C87F8C9
:105380002E2030333B4413F8203C87F8233097F825
:105390002E305A1C87F82E2030333B4413F8203C23
:1053A00087F8223097F822301B021AB297F8233080
:1053B0001BB213433B84BB683A8C9A80FB7B032B64
:1053C00032D197F82E305A1C87F82E2030333B44C8
:1053D00013F8203C87F82D3097F82E305A1C87F8A8
:1053E0002E2030333B4413F8203C9BB21B027B85BC
:1053F00097F82E305A1C87F82E2030333B4413F890
:10540000203C1B047B627A8D7B6A1A4397F82D300F
:105410001A43BB689A607A8D7B6A1A4397F82D30DD
:105420001A437B689A6009E0BB6800229A607B6837
:1054300000229A6002E0FE2387F82F3097F92F3080
:1054400018463037BD4680BD80B584B000AF786067
:10545000396000237B730023BB7307F10D013B68A8
:1054600001225020FEF75FFB0346FB7397F90F30D4
:10547000002B56D17B681B7803F00103DBB2002BB5
:105480003ED07B7B23F00103BB737B681B78C3F3A7
:105490004003DBB25BB203F001035AB297F90E305E
:1054A00013435BB2DBB27B737B7B23F00203BB73E2
:1054B0007B681B78C3F38003DBB25B005BB203F055
:1054C00002035AB297F90E3013435BB2DBB27B731F
:1054D0007B7B23F00403BB737B681B78C3F3C0039F
:1054E000DBB29B005BB203F004035AB297F90E30B3
:1054F00013435BB2DBB27B733B680022DA7007E0D8
:105500007B7B23F00703DBB27B733B68FF22DA70FF
:1055100007F10D013B6801225020FEF737FB0346DF
:10552000FB7397F90F3018461037BD4680BD80B524
:1055300084B000AF786000237B730023BB7307F156
:105540000D017B6801226220FEF7EDFA0346FB7332
:1055500097F90F30002B15D17B7B03F00203BB734F
:10556000BB7B002B0ED07B7B23F00203BB73BB7B8A
:105570007B7307F10D017B6801226220FEF706FBB9
:105580000346FB7397F90F3018461037BD4680BDB0
:1055900080B584B000AF78603960484A07F10C03E9
:1055A0001268114619800233120C1A70434A07F12F
:1055B00008031268114619800233120C1A7007F1A1
:1055C0000C013B6803225520FEF7ADFA0346FB733E
:1055D00097F90F30002B6AD13B7B5AB27B685B781E
:1055E0001946374B5B5C5BB2DB435BB213405BB28B
:1055F000DBB23B72BB7B5AB27B685B781946304B9F
:105600005B5C5BB2DB435BB213405BB2DBB2BB7291
:105610007B681B78032B3BD801A252F823F000BF14
:10562000315600083B560008535600086B560008D8
:105630003B7A3B73BB7ABB732CE03A7A7B685B782E
:1056400019461F4B5B5C1343DBB23B73BB7ABB73E6
:1056500020E0BA7A7B685B781946194B5B5C134390
:10566000DBB2BB733B7A3B7314E03A7A7B685B78BE
:105670001946134B5B5C1343DBB23B73BA7A7B680E
:105680005B7819460E4B5B5C1343DBB2BB7301E0E6
:10569000FC23FB7397F90F30002B08D107F10C01A5
:1056A0003B6803225520FEF771FA0346FB7397F916
:1056B0000F3018461037BD4680BD00BF28280108AE
:1056C000A828010880B584B000AF78603960002355
:1056D0007B730023BB7307F10D013B680122562049
:1056E000FEF721FA0346FB7397F90F30002B68D1C0
:1056F0007B685B781A46364B9B5C5BB2DB435AB2E5
:105700007B7B5BB213405BB2BB737B685B781A46F2
:105710002F4B9B5C1B01DBB25BB2DB435AB297F9A8
:105720000E3013405BB2BB737B681B78032B39D8F8
:1057300001A252F823F000BF495700084F57000854
:10574000675700087B570008BB7B7B732CE07B68A6
:105750005B781A461E4B9B5C1B01DAB2BB7B134382
:10576000DBB27B7320E07B685B781A46184B9A5C4F
:10577000BB7B1343DBB27B7316E07B685B781A4616
:10578000134B9A5CBB7B1343DBB27B737B685B7808
:105790001A460F4B9B5C1B01DAB27B7B1343DBB2D7
:1057A0007B7301E0FC23FB7397F90F30002B08D1CA
:1057B00007F10D013B6801225620FEF7E7F9034689
:1057C000FB7397F90F3018461037BD4680BD00BFF8
:1057D000A828010880B584B000AF78603960002344
:1057E0007B730023BB7307F10D013B680122592035
:1057F000FEF799F90346FB7397F90F30002B19D187
:105800007B7B03F07F03BB737B681B78C3F3801340
:10581000DBB2DB015AB297F90E3013435BB2DBB255
:105820007B7307F10D013B6801225920FEF7AEF9A9
:105830000346FB7397F90F3018461037BD4680BDFD
:1058400080B584B000AF7860396000233B730023DB
:10585000BB7300233B8107F10C013B6801225F20F1
:10586000FEF761F90346FB7397F90F30002B22D145
:105870007B681B78C3F30113DBB27B733B7B23F0A4
:105880000303BB7397F90D3023F07F035AB297F9E6
:105890000E3013435BB2DBB23B733B7B3B727B68E6
:1058A0005B787B7207F108013B6802225F20FEF7FC
:1058B0006DF90346FB7397F90F3018461037BD4654
:1058C00080BD80B586B000AFF860B9607A60796855
:1058D000F868FEF7E0FE0346FB7597F91730002BDA
:1058E00022D17868FFF723FE0346FB7597F917303E
:1058F000002B19D17968F868FFF74AFE0346FB755B
:1059000097F91730002B0FD17968B868FFF762FF5D
:105910000346FB7597F91730002B05D17968B868F5
:10592000FFF78EFF0346FB7597F9173018461837B7
:10593000BD4680BD80B584B000AF786000237B7326
:105940000023BB7307F10D017B6801225120FEF794
:10595000EAF80346FB7397F90F30002B11D17B7BDC
:1059600023F01003BB73BB7B43F01003DBB27B73EC
:1059700007F10D017B6801225120FEF707F903466C
:10598000FB7397F90F3018461037BD4680BD80B5C0
:1059900084B000AF7860396000237B730023BB7351
:1059A00007F10D013B6801225220FEF7BCF80346C7
:1059B000FB7397F90F30002B38D17B681B7803F00D
:1059C0000103DBB2002B08D07B7B23F00103BB7308
:1059D000BB7B43F00103DBB27B737B681B7803F076
:1059E0000203DBB2002B08D07B7B23F00203BB73E6
:1059F000BB7B43F00203DBB27B737B681B7803F055
:105A00000403DBB2002B08D07B7B23F00403BB73C1
:105A1000BB7B43F00403DBB27B7307F10D013B68F2
:105A200001225220FEF7B2F80346FB7397F90F30BC
:105A300018461037BD4680BD80B586B000AFF8600F
:105A4000B9607A607968F868FEF725FE0346FB7551
:105A500097F91730002B19D17968F868FFF798FD8E
:105A60000346FB7597F91730002B0FD17968B8689A
:105A700000F012F80346FB7597F91730002B05D19B
:105A80007968B86800F03EF80346FB7597F917305F
:105A900018461837BD4680BD80B584B000AF786029
:105AA000396000237B730023BB7307F10D013B6852
:105AB00001225920FEF737F80346FB7397F90F30A0
:105AC000002B19D17B7B03F07F03BB737B685B7872
:105AD000C3F38003DBB2DB015AB297F90E301343F4
